:020000040800F2
:100000000000022001A8000851A8000851A800081B
:1000100051A8000851A8000851A8000800000000DD
:1000200000000000000000000000000051A80008CF
:1000300051A800080000000051A800085F760008E1
:1000400051A8000851A8000851A8000851A80008AC
:1000500051A8000851A80008597700085F770008E8
:10006000657700086B7700087177000851A80008D1
:1000700051A8000851A8000851A8000851A800087C
:1000800051A8000851A8000851A80008000000006D
:10009000000000000000000000000000777700086A
:1000A00019680008916700082D680008B567000806
:1000B000C9670008DD670008F16700080D26000821
:1000C00019260008252600083126000851A8000836
:1000D00051A80008B5830008CD8300080000000087
:1000E0008D77000851A800089D9A000800000000C4
:1000F00000000000000000000000000051A80008FF
:100100000000000051A800080568000851A8000878
:1001100000000000000000000000000000000000DF
:1001200051A8000851A8000851A8000851A80008CB
:1001300051A80008000000000000000000000000BE
:10014000000000000000000000000000919A00087C
:1001500051A8000851A8000851A80008E983000828
:100160003D260008492600080000000000000000AD
:10017000000000000000000000000000000000007F
:100180000000000051A8000800000000000000006E
:0801900051A8000851A8000865
:1001A00001F0FF01102A2BDB10F0070F08D010F828
:1001B000013B013A8B422DD010F0070F42B3F6D12C
:1001C000F0B441EA012141EA014122F007047FF045
:1001D00000070023F0E80256083C85EA010586EA9C
:1001E000010685FA47F5A3FA87F586FA47F6A5FAD8
:1001F00087F68EB9EED1F0BC01F0FF0102F00702E4
:1002000032B110F8013B013A83EA010313B1F8D18E
:100210000020704701387047002D06BF354603386F
:10022000073815F0010F07D1013015F4807F02BFA8
:10023000013015F4C03F0130F0BC0138704700BFF9
:10024000034613F8012B002AFBD1181A0138704716
:1002500081F0004102E000BF83F0004330B54FEA77
:1002600041044FEA430594EA050F08BF90EA020FE4
:100270001FBF54EA000C55EA020C7FEA645C7FEA77
:10028000655C00F0E2804FEA5454D4EB5555B8BF9A
:100290006D420CDD2C4480EA020281EA030382EA0B
:1002A000000083EA010180EA020281EA0303362D9D
:1002B00088BF30BD11F0004F4FEA01314FF4801C70
:1002C0004CEA113102D0404261EB410113F0004F82
:1002D0004FEA03334CEA133302D0524263EB430339
:1002E00094EA050F00F0A780A4F10104D5F1200ED7
:1002F0000DDB02FA0EFC22FA05F2801841F1000132
:1003000003FA0EF2801843FA05F359410EE0A5F105
:1003100020050EF1200E012A03FA0EFC28BF4CF036
:10032000020C43FA05F3C01851EBE37101F00045EC
:1003300007D54FF0000EDCF1000C7EEB00006EEBF9
:100340000101B1F5801F1BD3B1F5001F0CD3490883
:100350005FEA30004FEA3C0C04F101044FEA4452DA
:1003600012F5800F80F09A80BCF1004F08BF5FEA61
:10037000500C50F1000041EB045141EA050130BD41
:100380005FEA4C0C404141EB0101013C28BFB1F553
:10039000801FE9D291F0000F04BF01460020B1FA9E
:1003A00081F308BF2033A3F10B03B3F120020CDA71
:1003B0000C3208DD02F1140CC2F10C0201FA0CF04F
:1003C00021FA02F10CE002F11402D8BFC2F1200CB4
:1003D00001FA02F120FA0CFCDCBF41EA0C0190406A
:1003E000E41AA2BF01EB0451294330BD6FEA0404B3
:1003F0001F3C1CDA0C340EDC04F11404C4F120029E
:1004000020FA04F001FA02F340EA030021FA04F3AF
:1004100045EA030130BDC4F10C04C4F1200220FA06
:1004200002F001FA04F340EA0300294630BD21FA44
:1004300004F0294630BD94F0000F83F4801306BF0A
:1004400081F480110134013D4EE77FEA645C18BFFE
:100450007FEA655C29D094EA050F08BF90EA020F95
:1004600005D054EA000C04BF1946104630BD91EA8D
:10047000030F1EBF0021002030BD5FEA545C05D190
:100480004000494128BF41F0004130BD14F58004CF
:100490003CBF01F5801130BD01F0004545F0FE4143
:1004A00041F470014FF0000030BD7FEA645C1ABF78
:1004B000194610467FEA655C1CBF0B46024650EAAF
:1004C000013406BF52EA033591EA030F41F40021DB
:1004D00030BD00BF90F0000F04BF0021704730B561
:1004E0004FF4806404F132044FF000054FF0000136
:1004F00050E700BF90F0000F04BF0021704730B5F7
:100500004FF4806404F1320410F0004548BF4042CB
:100510004FF000013EE700BF42004FEAE2014FEA20
:1005200031014FEA02701FBF12F07F4393F07F4FFB
:1005300081F06051704732F07F4208BF704793F0FE
:100540007F4F04BF41F40021704730B54FF4607411
:1005500001F0004521F000411CE700BF50EA010214
:1005600008BF704730B54FF000050AE050EA0102BD
:1005700008BF704730B511F0004502D5404261EB2D
:1005800041014FF4806404F132045FEA915C3FF46E
:10059000D8AE4FF003025FEADC0C18BF03325FEA0B
:1005A000DC0C18BF033202EBDC02C2F1200300FABC
:1005B00003FC20FA02F001FA03FE40EA0E0021FAE1
:1005C00002F11444BDE600BF70B54FF0FF0C4CF4CF
:1005D000E06C1CEA11541DBF1CEA135594EA0C0F81
:1005E00095EA0C0F00F0DEF82C4481EA030621EABC
:1005F0004C5123EA4C5350EA013518BF52EA0335F7
:1006000041F4801143F4801338D0A0FB02CE4FF0A8
:100610000005E1FB02E506F00042E0FB03E54FF0D8
:100620000006E1FB03569CF0000F18BF4EF0010ED0
:10063000A4F1FF04B6F5007F64F5407404D25FEACC
:100640004E0E6D4146EB060642EAC62141EA55517F
:100650004FEAC52040EA5E504FEACE2EB4F1FD0CC1
:1006600088BFBCF5E06F1ED8BEF1004F08BF5FEA3F
:10067000500E50F1000041EB045170BD06F00046F1
:1006800046EA010140EA020081EA0301B4EB5C049E
:10069000C2BFD4EB0C0541EA045170BD41F4801196
:1006A0004FF0000E013C00F3AB8014F1360FDEBFBB
:1006B000002001F0004170BDC4F10004203C35DA97
:1006C0000C341BDC04F11404C4F1200500FA05F31A
:1006D00020FA04F001FA05F240EA020001F00042BB
:1006E00021F0004110EBD37021FA04F642EB060131
:1006F0005EEA430E08BF20EAD37070BDC4F10C045B
:10070000C4F1200500FA04F320FA05F001FA04F21E
:1007100040EA020001F0004110EBD37041F100010A
:100720005EEA430E08BF20EAD37070BDC4F1200515
:1007300000FA05F24EEA020E20FA04F301FA05F27D
:1007400043EA020321FA04F001F0004121FA04F225
:1007500020EA020000EBD3705EEA430E08BF20EAF5
:10076000D37070BD94F0000F0FD101F0004640002F
:1007700041EB010111F4801F08BF013CF7D041EAB1
:10078000060195F0000F18BF704703F000465200B5
:1007900043EB030313F4801F08BF013DF7D043EA86
:1007A0000603704794EA0C0F0CEA135518BF95EA3C
:1007B0000C0F0CD050EA410618BF52EA4306D1D1C3
:1007C00081EA030101F000414FF0000070BD50EAE2
:1007D000410606BF1046194652EA430619D094EA6C
:1007E0000C0F02D150EA013613D195EA0C0F05D156
:1007F00052EA03361CBF104619460AD181EA0301AA
:1008000001F0004141F0FE4141F470014FF0000061
:1008100070BD41F0FE4141F4780170BD70B54FF0FC
:10082000FF0C4CF4E06C1CEA11541DBF1CEA13557C
:1008300094EA0C0F95EA0C0F00F0A7F8A4EB05045E
:1008400081EA030E52EA03354FEA013100F0888055
:100850004FEA03334FF0805545EA131343EA12631E
:100860004FEA022245EA111545EA10654FEA0026D3
:100870000EF000419D4208BF964244F1FD0404F58C
:10088000407402D25B084FEA3202B61A65EB0305E8
:100890005B084FEA32024FF480104FF4002CB6EBA5
:1008A000020E75EB030E22BFB61A754640EA0C0025
:1008B0005B084FEA3202B6EB020E75EB030E22BF65
:1008C000B61A754640EA5C005B084FEA3202B6EBA6
:1008D000020E75EB030E22BFB61A754640EA9C0065
:1008E0005B084FEA3202B6EB020E75EB030E22BF35
:1008F000B61A754640EADC0055EA060E18D04FEAF3
:10090000051545EA16754FEA06164FEAC30343EA92
:1009100052734FEAC2025FEA1C1CC0D111F4801F5F
:100920000BD141EA00014FF000004FF0004CB6E758
:1009300011F4801F04BF01430020B4F1FD0C88BFF7
:10094000BCF5E06F3FF6AFAEB5EB030C04BFB6EB02
:10095000020C5FEA500C50F1000041EB045170BDF5
:100960000EF0004E4EEA113114EB5C04C2BFD4EB22
:100970000C0541EA045170BD41F480114FF0000EA6
:10098000013C90E645EA060E8DE60CEA135594EA22
:100990000C0F08BF95EA0C0F3FF43BAF94EA0C0F25
:1009A0000AD150EA01347FF434AF95EA0C0F7FF49A
:1009B00025AF104619462CE795EA0C0F06D152EAEE
:1009C00003353FF4FDAE1046194622E750EA4106D2
:1009D00018BF52EA43067FF4C5AE50EA41047FF4E3
:1009E0000DAF52EA43057FF4EBAE12E74FF0FF3C48
:1009F00006E000BF4FF0010C02E000BF4FF0010C19
:100A00004DF804CD4FEA410C7FEA6C5C4FEA430C91
:100A100018BF7FEA6C5C1BD001B050EA410C0CBFE0
:100A200052EA430C91EA030F02BF90EA020F002042
:100A3000704710F1000F91EA030F58BF994208BFA9
:100A400090422CBFD8176FEAE37040F00100704766
:100A50004FEA410C7FEA6C5C02D150EA013C07D1BD
:100A60004FEA430C7FEA6C5CD6D152EA033CD3D008
:100A70005DF8040B704700BF8446104662468C4602
:100A80001946634600E000BF01B5FFF7B7FF002835
:100A900048BF10F1000F01BD4DF808EDFFF7F4FF5E
:100AA0000CBF012000205DF808FB00BF4DF808EDE9
:100AB000FFF7EAFF34BF012000205DF808FB00BF0C
:100AC0004DF808EDFFF7E0FF94BF012000205DF82E
:100AD00008FB00BF4DF808EDFFF7CEFF94BF0120E3
:100AE00000205DF808FB00BF4DF808EDFFF7C4FFDC
:100AF00034BF012000205DF808FB00BF4FEA410C25
:100B00007FEA6C5C02D150EA013C0AD14FEA430C07
:100B10007FEA6C5C02D152EA033C02D14FF0000044
:100B200070474FF0010070474FEA410212F5001282
:100B300015D211D56FF47873B3EB625212D94FEA24
:100B4000C12343F0004343EA505311F0004F23FA0E
:100B500002F018BF404270474FF00000704750EA63
:100B6000013005D111F0004008BF6FF00040704720
:100B70004FF00000704700BF4A0011D212F500127A
:100B800011D20DD56FF47873B3EB62520ED44FEAE5
:100B9000C12343F0004343EA505323FA02F0704765
:100BA0004FF00000704750EA013002D14FF0FF30A3
:100BB00070474FF0000070474FEA4102B2F1E04346
:100BC00024BFB3F5001CDCF1FE5C0DD901F0004C34
:100BD0004FEAC0024CEA5070B2F1004F40EB830084
:100BE00008BF20F00100704711F0804F21D113F1B0
:100BF0003872BCBF01F00040704741F480114FEAE9
:100C00005252C2F11802C2F1200C10FA0CF320FA71
:100C100002F018BF40F001004FEAC1234FEAD3238E
:100C200003FA0CFC40EA0C0023FA02F34FEA4303F8
:100C3000CCE77FEA625307D150EA01331EBF4FF081
:100C4000FE4040F44000704701F0004040F0FE409C
:100C500040F40000704700BF53B94AB9002908BFEB
:100C600000281CBF4FF0FF314FF0FF3000F00CB8F0
:100C7000ADF1080C6DE904CE0EF01CFBDDF804E0CC
:100C8000DDE9022304B07047704700BF10B5054C82
:100C9000237833B9044B13B10448AFF30080012328
:100CA000237010BD400400200000000078F500080B
:100CB00008B5034B1BB103490348AFF3008008BDDF
:100CC000000000004404002078F50008012A02D149
:100CD000016000207047022A05D0032AF9D0002ABB
:100CE000F7D10260F5E70B680360F2E70368184785
:100CF0002DE9FF411F46264B04464FF001080E46E2
:100D00001546186080F809800221304609F0A2FDDE
:100D100028462670414609F09DFD9DF82C3020782C
:100D20006570434538BF4346232823721FD8194BAB
:100D300053F82030013308BFFF2000230193164BE6
:100D40000093164B03930A9A154B0293694609F0D8
:100D500063FC029B1BB169460322084698479DF835
:100D6000303067602046A37204B0BDE8F08100F027
:100D7000C003C02B0AD1C92808D80A4B00F03F0293
:100D800053F82220034B53F82230D3E7FF20D4E757
:100D90005C04002090FE0008250E0008ED0C000801
:100DA000CD0C000868FE0008704743688B428CBF7A
:100DB000C160C3607047037D407813B1002109F022
:100DC000A7BD0121FBE710B5044609F015FE20621E
:100DD000E268236913442361226963689A4223BF4E
:100DE0002269D21A2261012228BF002222752269BB
:100DF00093423EBF002323612375237D13B9A3696A
:100E00000133A361237D43B9E369002B05DDA269AA
:100E1000E3699A42C4BF012323752046BDE8104010
:100E2000FFF7C9BF38B5114C23689B7A9BB9256879
:100E300009F0E2FD2862FFF7B7FF2068027A437AE3
:100E4000511E8B4203F101030EDB9B1A4372BDE876
:100E50003840FFF7B8BF09F0CFFD23681A6A9B7AC4
:100E6000801A9842E3D238BD4372FCE75C0400204C
:100E7000836810B5044613B1032201469847204603
:100E800010BD000008B5074801F0ABFCA0F66A20D1
:100E900007EE900AB8EEE70ADFED037A80EE270A44
:100EA00008BD00BF200600209A39DE4438B5134D36
:100EB0002B68C31A0A2B2DED028B04461BD9FFF7B2
:100EC000E1FF10EE100AB0EE408AFFF725FB0C4B55
:100ED000B0EE480AC3E900010A4800F04AFE10EEED
:100EE000100AFFF719FB084B2C60C3E90001012031
:100EF000BDEC028B38BD0020FAE700BF6C06002075
:100F000088060020080600208006002038B51A4D0B
:100F10002B68C31AFA2B2DED028B04462AD91748E9
:100F200001F01AFDF7EE007AB4EEE70AF1EE10FADE
:100F3000B0EE408A06DCDFED127AB4EEE70AF1EE9D
:100F400010FA12D518EE100AFFF7E6FA0D4BB0EEC4
:100F5000480AC3E900010C4800F00BFE10EE100A2D
:100F6000FFF7DAFA094BC3E900012C600120BDEC60
:100F7000028B38BD0020FAE770060020E80500204B
:100F800000004843A0060020F0050020980600203D
:100F90002DE9F84F5E4BDFF89C81DFF89C91D3E997
:100FA00000675C4B00240025D3E900AB22462B46AA
:100FB00030463946FFF798FD48B357495246D1E9C4
:100FC00000015B46FFF790FDF0B9544B002230461C
:100FD0003946FFF789FDA8B930463946FFF7A4FD29
:100FE000642390FBF3F0C0EBC010FFF783FAC8E96D
:100FF0000001FFF7C1FD0146D9F80000BDE8F84F38
:10100000FFF7D3BE0A20EBE720462946EFE722464A
:101010002B4650465946FFF767FD0646002865D027
:1010200001211F2009F074FC3B4BD3E900AB394B85
:10103000D3E90067504632463B465946FFF754FD18
:1010400000284ED152465B4630463946FFF704F938
:10105000FFF7B2FDFFF760FA314BD3E90023FFF74A
:10106000DDFB0B462F490246D1E90001FFF7F4F8FA
:1010700041EC100B0DF080FE2B4B51EC100BD3E923
:101080000023FFF7EBF802460B461FA1D1E9000150
:10109000FFF7C4FB254B002204460D463046394677
:1010A000FFF792FA02460B4650465946FFF7FEFC00
:1010B000B8B11F4BD8E900ABD3E9006752465B4695
:1010C00020462946FFF7C8F832463B46FFF70CFD9D
:1010D00038B132463B4650465946FFF7BFF8044602
:1010E0000D46C8E900452046294682E70146D9F861
:1010F0000000C8E90045FFF758FE31461F20BDE853
:10110000F84F09F005BC00BF0000000000C05F40C0
:1011100048060020500600208006002000002440E1
:101120000000002008000020100000200000E03F28
:101130001800002078060020EC05002010B50446B9
:1011400010440BF05AF908B1001B10BD4FF0FF30EE
:10115000FBE7F8B5551A074628460E4609F048FF42
:10116000044628B12A46B9190BF066F900236355E5
:101170002046F8BD2DE9F0410D46074690463B213B
:101180001A4628461E46FFF7D9FF041E0DDD4445CA
:101190000BDA224631462846FFF7DBFF09F058FC00
:1011A00087ED000B601CBDE8F0814FF0FF30FAE7DF
:1011B0002DE9F843464CDFF86C914649DFF8688129
:1011C000454D464E464F204609F0BAF8454920465F
:1011D00009F0B6F899ED000B0221204609F0B6F9A6
:1011E0004149204609F0ACF898ED000B0221204659
:1011F00009F0ACF93D49204609F0A2F895ED000B45
:101200000221204609F0A2F93949204609F098F850
:1012100096ED000B0221204609F098F93549204649
:1012200009F08EF897ED000B0221204609F08EF9A7
:101230003149204609F084F8304B022193ED000B30
:10124000204609F083F92E49204609F079F82D4B04
:10125000022193ED000B204609F078F92A49204637
:1012600009F06EF8294B022193ED000B204609F09E
:101270006DF92749204609F063F8264B022193EDCA
:10128000000B204609F062F92349204609F058F87E
:10129000224B2046224C93ED000B022109F05BF912
:1012A00099ED000B204600F072FBD8E90001FFF732
:1012B00063FC0146204600F06FFB97ED002B96ED96
:1012C000001B95ED000B2046BDE8F84300F058BB2D
:1012D0000809002090F500083000002028000020B8
:1012E00020000020A5F50008B6F50008C8F50008A4
:1012F000D7F50008E6F50008F5F50008180000200D
:1013000004F600081000002014F600080800002071
:1013100021F60008000000202EF6000840060020FC
:101320007805002040000020380000202DE9F0431F
:101330002D4D2B68C31AC82BB1B0044652D9642274
:10134000002117A80BF0A5F8284BD3E90067284B1C
:101350001F20D3E9008909F015FB264B26491B689D
:101360001493264BD3E90023CDE91223244BD3E970
:101370000023CDE91023234BD3E90023CDE90E232D
:10138000214BD3E90023CDE90C23204BD3E90023E3
:10139000CDE90A231E4BD3E90023CDE908231D4BD9
:1013A000D3E90023CDE906231B4BD3E900230290A8
:1013B000CDE90423CDE9008932463B4617A80AF05F
:1013C00061F81649164808F0BBFF17A9144808F041
:1013D000D1FF144817A908F0CDFF2C60012031B0CF
:1013E000BDE8F0830020FAE764060020980600209C
:1013F00080060020600600203BF600082000002048
:10140000280000203000002038000020400000208C
:1014100058060020780600209006002077F6000885
:1014200008090020600400200022C0E90022C0E971
:10143000022270472DE9F0435A4CDFF89481DFF81F
:101440009491594E91B04FF41651204607F0C2F8CE
:101450004FF47A7009F0D2FA2046544C544908F0FF
:1014600089FF062220464FF4E13108F0F1FE514990
:10147000204608F07FFFD8F85C30C9F8843009AF07
:10148000D8F85830C9F888304A46482138463D4691
:1014900001F0F7F90FCD34460FC495E8070084E852
:1014A00007000021484600F029FE304601F0DFF831
:1014B0003046002101F0E3F83046072101F021F920
:1014C0003046002101F017F90021304601F0CEF935
:1014D00001211F2009F0BEF900211F2009F018FA90
:1014E000242006F01FF800240223CDE90134042350
:1014F000132200930F217F230546FFF7F9FB2E4BA4
:10150000214628461D60FFF750FC0121152009F0F7
:10151000A1F92A4D2A4B284693ED000B00F037FA2B
:10152000284BD3E90001FFF727FB01462846264D4B
:1015300000F032FA2946D8F8540006F0CBFA2946D2
:101540000646D8F85400DFF8908006F0E5FAC0F3BC
:10155000C430C8F80000B02005F0E4FF314605466D
:1015600005AE05F073F9194BD8F800801D602146CF
:101570003046FFF759FF21463846FFF755FF1E2337
:10158000152241462846CDE90167009405F032FA5C
:101590003846FFF76DFC3046FFF76AFC11B0BDE836
:1015A000F08300BF0809002020060020600400200E
:1015B0007FF600088CF60008EC0500207805002076
:1015C00040000020380000201CFC0008E00500203E
:1015D00090FE0008A8060020E40500202DE9F04157
:1015E00015488CB000F0E6F9144B1F68144BD3F883
:1015F0000080144BD3E90001FFF7BEFA04AC08AD3C
:10160000064600212046FFF70FFF00212846FFF77E
:101610000BFF1E23152241463846CDE901450096B1
:1016200005F0E8F92846FFF723FC2046FFF720FCE9
:101630000CB0BDE8F08100BF78050020E005002077
:10164000E40500209006002007B5274A27484821D6
:1016500001F017F9DFED260A9FED261A2648B0EEB5
:10166000600A00F07BFAF5EE000A9FED241A244888
:10167000B0EE600A00F072FA14236FF039026FF0D6
:101680003A01204801F00EF99FED0D4B9FED0E3B06
:101690009FED0F2B9FED101B9FED110B1A4B1B4A5B
:1016A0001B491C4800F05AF924230093C222C3218D
:1016B000194808F081FC03B05DF804FBAFF300802B
:1016C0009A9999999999B93F9A9999999999C93FEC
:1016D000000000000000244000000000000059400D
:1016E0000000000000000000A806002020060020E6
:1016F0009A99193FCDCCCC3D080600200AD7233C4F
:10170000F0050020E8050020900600205806002083
:1017100098060020780500206004002030B5ADF563
:10172000017D4FF4FA72002103A80AF0B2FE5E4870
:1017300008F03CFB98B15D495D4808F01BFE0A22A9
:101740005949684608F050FF009903A80AF046FE80
:10175000684608F0AFFF564803A908F00BFE0022C8
:101760007C2103A8FFF7EAFC041E3ADD00223B219E
:1017700003A8FFF7E3FC051E33DDAC4231DD2A464A
:10178000002103A8FFF7E5FC09F065F9012805F140
:10179000010329D14748224603A9FFF7EBFC031EAA
:1017A00004DD4548224603A9FFF7E4FC434B002033
:1017B0000021C3E9000142493D4808F0C1FD3D4B0D
:1017C0003B4893ED000B022108F0C0FE3D4938482C
:1017D00008F0B6FD384B364893ED000B022108F0B7
:1017E000BAFE0DF5017D30BD022813D131482246E5
:1017F00003A9FFF7BFFC031EF3DD2F48224603A910
:10180000FFF7B8FC031EECDD224603A92B48FFF7C7
:10181000B1FCE6E70928E4D12B48224603A9FFF7EB
:10182000A9FC031E3CDD2948224603A9FFF7A2FCC0
:10183000031E35DD2648224603A9FFF79BFC031E45
:101840002EDD2448224603A9FFF794FC031E27DD62
:101850002148224603A9FFF78DFC031E20DD1F4807
:10186000224603A9FFF786FC031E19DD1C48224609
:1018700003A9FFF77FFC031E12DD1A48224603A9C5
:10188000FFF778FC031E0BDD1748224603A9FFF77C
:1018900071FC031E04DD1548224603A9FFF76AFC0C
:1018A000FFF786FC9DE700BF6004002099F6000862
:1018B0000809002058060020500600204806002095
:1018C000A2F60008B7F6000840000020380000200B
:1018D00030000020280000202000002018000020F8
:1018E000100000200800002000000020400600201A
:1018F00038B5064D2B68C31AC82B044604D9FFF728
:101900000DFF2C60012038BD0020FCE76806002098
:1019100070B509F071F80446FFF7F8FA064620465C
:10192000FFF7C4FA05462046FFF7E2FF0EB1FFF7C6
:1019300055FE0DB1FFF72CFB2046FFF7F7FC064ADA
:1019400013680133136009F057F80A34201ABDE810
:10195000704009F053B800BF6006002010B5036462
:101960004FF47A73C0E90E1280ED120B80ED141B58
:1019700080ED002B80ED023B80ED044B836510BDB4
:1019800080ED000B80ED021B80ED042B704780ED95
:101990000A0B80ED0C0B70478165704710B504464B
:1019A00009F02AF800220023C4E90623C4E9082329
:1019B000E06510BD2DE9FF4790F86030824623B105
:1019C000002380F86030FFF7E9FFDAE90A450022DA
:1019D000002320462946FFF75FF8D8B9DAE90E312F
:1019E000D3E90023D1E90001FEF736FC02460B469D
:1019F00020462946FFF75AF860B1DAE91401DAF80F
:101A00004030C3E9000108F0F7FFCAF85C0004B0F9
:101A1000BDE8F087DAE90C4500220023204629467C
:101A2000FFF73AF888B9DAE90E13D3E90023D1E9D0
:101A30000001FEF711FC02460B4620462946FFF73F
:101A400035F810B1DAE91201D9E708F0D5FFDAF874
:101A50005C30C61ADAF85830B342D8D808F0CCFF58
:101A6000DAE90E31CAF85C00D3E90023D1E90001BC
:101A7000FEF7F2FB9AED087B044630468DED007BC5
:101A80000D46FEF727FD2246804689462B46DDE9B6
:101A90000001FEF7E3FB2F4B0022FEF795FD4246C7
:101AA0004B46FEF791FD2C4B0022FEF7B7FEDAE91C
:101AB0000623FEF7D3FB06460F46CAE90667CAE9C6
:101AC0000845DAE9002320462946FEF77DFDDAE9DC
:101AD0000223CDE9020130463946FEF775FD024684
:101AE0000B46DDE90201FEF7B9FBDDE900230646FE
:101AF0000F4620462946FEF7AFFB42464B46FEF70F
:101B00008DFE154B0022FEF789FEDAE90423FEF76D
:101B10005BFD02460B4630463946FEF79FFBDAE98D
:101B2000124506460F4602460B4620462946FEF75A
:101B3000DBFF50B9DAE9144532463B4620462946D8
:101B4000FEF7B4FF08B934463D46DAF84030C3E941
:101B500000455CE70000E03F00408F400022C2608B
:101B60000261426180ED000AC0ED010A80ED021AB7
:101B70007047D0ED016AD0ED007A76EEA77A86EE56
:101B8000A76AD0ED047A80ED056A30EE677AB0EE90
:101B9000670AA6EE070AB7EE007A77EEC07A37EE4C
:101BA000467A90ED026A80ED030AF0EEE77A67EE7E
:101BB000867A80ED040AE6EE877AC0ED017A7047F6
:101BC00000207047028BC08A101A7047C28A018BAE
:101BD000914288BF0169034683BF885C0132DA8283
:101BE0004FF0FF307047028BC38A9A4286BF02696A
:101BF000D05C4FF0FF307047806DD0F8DC302BB1F7
:101C000000234384D0F8E030D430184770470000F8
:101C100070B54FF47A730E460021C0E901130346F4
:101C200015462B4A43F8C42B0446C0F8C4109C2226
:101C3000C3E90111C0E93411C0E93611C0F8E01060
:101C400028300AF026FCF3B2232B19D8214A52F887
:101C5000233006F4E0661E43EBB2232BC4F8846005
:101C600022D81C4A52F8233005F4E0651D430023B6
:101C7000C4F88850E36123842361A382204670BDA9
:101C800006F0C002C02A0CD1C92B0AD8124B06F0AC
:101C90003F0206F4E06653F822200E4B53F8223040
:101CA000D9E74FF0FF36D7E705F0C002C02A0CD1C4
:101CB000C92B0AD8084B05F03F0205F4E06553F83C
:101CC0002220044B53F82230D0E74FF0FF35CEE707
:101CD0001CFA000890FE000868FE000838B50446AB
:101CE000283000F0FFFAE06918B109F089F9002303
:101CF000E36120690025258410B109F081F925618F
:101D0000A58238BD38B50546074B45F8D43B044697
:101D1000FFF7E4FF2846FFF7ABF804F1C400FFF734
:101D2000A7F8204638BD00BF1CFA000801239940DF
:101D300080F82430002381764384704738B5838A45
:101D40008B4205460C4609D2202938BF2024006961
:101D5000214609F0B7FB10B12861AC8238BDFEE71F
:101D600073B5846D866ED4F8CC300546E3B1E28A53
:101D7000238B9A4218D331462046FFF7DFFF2069B4
:101D8000324605F174010AF0E0FB0023E382D4F847
:101D9000CC30268301960BB90DF0EAFBD4F8D03095
:101DA00001A904F1C400984702B070BDB1F5806F7D
:101DB00070B505460C4610D8038C99420AD92029E3
:101DC0000E4638BF2026C069314609F07BFB18B1AA
:101DD000E8612E84204670BDFEE70024FAE713B5C3
:101DE00090F824308DF8071004467BB1418C013106
:101DF000FFF7DCFF40B1638CE2699DF80710D15416
:101E0000638C01336384012002B010BD01220DF107
:101E10000701283000F0B6FAB0FA80F04009F3E785
:101E200070B590F8243004460E46154693B1418CA7
:101E30001144FFF7BBFF10B90025284670BD638C25
:101E4000E0692A46184431460AF07FFB638C2B4434
:101E50006384F2E792B2283000F094FA0028EBD1C4
:101E6000EBE70346006918B19A8A00210AF011BB1A
:101E700070470346C06918B11A8C00210AF009BBEB
:101E8000704738B50446D1B94FF42A03A36594F8D6
:101E9000BE30012B16D1638CE269A17E04F12800CB
:101EA00000F0F0FA042828BF042045B22046FFF7CE
:101EB000E0FF0023638484F82430E8B238BD4FF09B
:101EC0002A43E3E70425F8E72DE9F04790F8BEA0A0
:101ED0009DF820509DF82490BAF1010F04460F465A
:101EE0001646984638D111467F00FFF727FFFFB20C
:101EF000CDB1032D28BF0325013D0023EDB284F8A9
:101F000024A0A7766384ED00236828FA05F11B68F6
:101F1000C9B22046083D984715F1080FF4D10021B9
:101F20002046FFF7AEFFB9F1000F12D14FF42A039C
:101F3000A36522693346394604F1280000F03CFAD3
:101F4000002818BF00260023E38226833046BDE820
:101F5000F0874FF02A43EBE70026F7E707B5019338
:101F600000230093FFF7B0FF03B05DF804FB0123EB
:101F7000D2B2C9B2FFF7F2BF0121FFF782BF38B575
:101F800004460025C5820583FFF76BFF6584204664
:101F9000FFF76FFF38BD00002DE9F0410446D0F88F
:101FA000840008F013FC002108F054FCD4F88430BD
:101FB000C3F30312052A43D8254D264F55F8222096
:101FC00003F00F03126957F8233093433ED0D4F83F
:101FD000880008F0FBFB012108F03CFCD4F88800E5
:101FE0001D4BC0F3031105291B682CD800F00F020C
:101FF0001A4C57F82270B3FBF4F3194A0A246343CE
:1020000014264FEA074E55F821C0CCF818E0D2F854
:1020100004805468A4EB0804A342FADCCCF81870DE
:10202000D2F804C05468A4EB0C04A342FADC013ECD
:10203000E9D108F0CBFB3146BDE8F04108F00ABC1D
:1020400000231B69FFDE00239B61FBE7BDE8F081F5
:102050005000002050FA00087000002040420F009D
:10206000001000E02DE9F04104460026C6820683F8
:102070001F460D469046FFF7F4FE6684A67620467E
:10208000FFF7F7FED4F8DC30C4F8804033B104F138
:10209000D401032208469847C4E93766002384F830
:1020A00024306B0084F825306B1E5D425D4184F85E
:1020B000BE50204684F8BF8084F8C07004F1280523
:1020C000FFF76AFF94F825200949284600F02AF80E
:1020D00094F8BE304BB92846064900F02BFA284642
:1020E0000549BDE8F04100F01EBABDE8F08100BF2F
:1020F000A0860100F91B0008611D00080A460023A4
:102100000121FFF7AFBF000002481A221321FFF799
:102110007FBD00BFA80600200148FFF7F3BD00BF48
:10212000A8060020F0B50D4685B0164604460028E6
:1021300000F0C2806149C06D05F0CCFC60490746E3
:10214000206E05F0C7FC0146002F00F0B580002886
:1021500000F0B280384605F0E4FC2060002800F072
:10216000AB80584B984204F104074FF0000365D14F
:102170000193554B1A6C42F400121A641A6C02F463
:1021800000120192019A1A6A42F400121A621A6A43
:1021900022F400121A6242F21F03A4F864304B4B7F
:1021A0001F604749206E05F07DFC4449E06D05F055
:1021B00079FC23686360464B9D4206D9454B9D429E
:1021C00003D9454B9D4288BF0023A360404B94F93F
:1021D00064009D4294BF00250125AD03C4E9035668
:1021E0004FF480430025C4E9053594F89730E56144
:1021F0005B1B18BF01239B01236294F8983084F87D
:1022000041505B1B18BF0123DB0163622A46022198
:1022100000F058FC94F9640000F086FC94F9650025
:102220002A46022100F04EFC94F9650000F07CFC87
:10223000384600F039FE00283AD0FEE7274A90429F
:1022400019D10293204B1A6C42F480021A641A6C62
:1022500002F480020292029A1A6A42F480021A621E
:102260001A6A22F480021A6242F22123A4F864302E
:10227000164B5F6095E71A4A904292D10393124B36
:102280001A6C42F400021A641A6C02F400020392FF
:10229000039A1A6A42F400021A621A6A22F40002CD
:1022A0001A6244F64813A4F86430084B9F6078E73C
:1022B0000223A06684F8953005B0F0BD14FE000836
:1022C000D8FD000800540040003802408C07002070
:1022D000A0860100801A060040420F00005800400E
:1022E000005C004010B5044690F9640000F02AFC40
:1022F00094F9650000F026FC201D00F07EFE206EA3
:10230000032105F041FBE06D032105F03DFB23684F
:10231000184A93420DD1184B1A6A42F400121A62FD
:102320001A6A22F400121A621A6C22F400121A6459
:1023300010BD124A93420CD10F4B1A6A42F480022C
:102340001A621A6A22F480021A621A6C22F480025B
:10235000EDE70B4A9342EBD1074B1A6A42F40002B5
:102360001A621A6A22F400021A621A6C22F400023B
:10237000DDE700BF00540040003802400058004034
:10238000005C0040202A30B514D800239CB2A24241
:1023900007D890F894301344DBB280F894300020D2
:1023A00030BD90F89440CD5C1C440444013384F863
:1023B0007450EBE70120F3E72DE9F34705460F469C
:1023C0009046994600F052FB0024D5F830A006460E
:1023D0000435CDF800A04B4642463946284600F069
:1023E0003FFF022806D100F041FB841B642CF0D98A
:1023F00006201FE008BB00F039FB0646284601F026
:1024000097FE202809D0632C07D800F02FFB841BEF
:10241000284601F090FE0028F0D0284601F08BFEFF
:10242000632C0CD882060AD443070AD4003818BF9C
:102430000120800002B0BDE8F0870420FAE7052003
:10244000F8E70320F6E710B564230446043000F0F3
:10245000EDFD022810D0032806D090B194F8413049
:10246000202B18BF042004E094F84130202B18BF23
:10247000052008BF022004E094F84130202B18BF4B
:10248000062010BD2DE9F34704460E4691461F462F
:1024900000F0ECFA80463FB901223146204602B0F6
:1024A000BDE8F047FFF7CFBFD4F830A000250434D3
:1024B000CDF800A03B464A463146204600F068FE73
:1024C000022807D100F0D2FAA0EB0805642DEFD95D
:1024D00006201FE008BB00F0C9FA0646204601F0BE
:1024E00027FE202809D0632D07D800F0BFFA851BEE
:1024F000204601F020FE0028F0D0204601F01BFE0F
:10250000632D0CD882060AD443070AD4003818BFBA
:102510000120800002B0BDE8F0870420FAE7052022
:10252000F8E70320F6E720B119B1C166043000F0E6
:1025300093BF704720B119B10167043000F08CBF20
:10254000704770B590F89130012B04460D46A0F10C
:10255000040609D1436E3BB1836E3046984702238F
:1025600084F89130002363668DB9E36E84F891504E
:102570001BB184F890503046984794F8902004F1AD
:10258000700120462023BDE8704000F0EFBE00231C
:102590000122636684F89120616E743131442046D3
:1025A0000423BDE8704000F01CBF10B590F89130D6
:1025B000012B044604D1436E13B1836E043898474F
:1025C000022384F89130002363662046BDE8104062
:1025D00000F042BF436E1F2BDEBF436E01334366E4
:1025E00090F89130012BDAB205D1416E703104239D
:1025F000014400F0F6BE7047002380F89030704729
:1026000090F892300BB900F027BF7047014B186863
:1026100001F0A2B88C070020014B186801F0ECBC57
:102620008C070020014B586801F096B88C070020F9
:10263000014B586801F0E0BC8C070020014B986802
:1026400001F08AB88C070020014B986801F0D4BCD7
:102650008C07002010B5044681784069FFF766FBBF
:102660006069FFF789FCB0FA80F0400910BD8378FB
:10267000483B032B01D8FFF7EDBF002070470378DC
:1026800013F010030FD008290FD851B101390729D1
:1026900009D8DFE801F016040810080808134FF401
:1026A0008061C18070470021FBE7102914BF002121
:1026B0004FF42061F5E74FF4C061F2E74FF4006199
:1026C000EFE74FF40071ECE708B50021FFF7D7FF03
:1026D000044B836003F12073C3604FF6FF730382E2
:1026E00008BD00BF0001800008B50022827482612D
:1026F000FFF7EAFF08BD003918BF01210902018177
:102700007047082928BF042149014181704770B5ED
:102710000446406916461D46FFF708FB60690368DA
:1027200031461B68984760690368290A1B68984707
:1027300060690368E9B21B6898476069FFF71CFC91
:1027400018B19A23A374002070BD0120FCE738B5AE
:102750000289C3881343428913430B43027B9BB214
:1027600004460D4643F4004382B9627B0AB143F04C
:102770000803A27B0AB143F00403E27BA178134370
:1027800020460122FFF7C3FF258238BD43F0100326
:10279000EBE770B50546406916460C46FFF7C6FAEA
:1027A0006869036831461B6898476869FFF7E4FB6E
:1027B00098B9686902222146FFF7D9FB02280CD19B
:1027C000686903685B6998470402686903685B6924
:1027D0009847A4B2204480B270BD9A23AB74002005
:1027E000FAE710B5002204468178FFF7D2FF23797B
:1027F00000B203B1184110BD08B501228178FFF77E
:10280000C8FFC0F3C03008BD08B5FFF7F5FF80F082
:102810000100C0B208BD70B50446FFF798FF2389D8
:10282000B3F5807F19D108F0E7F8638980255B094B
:102830001D410A350646EDB22046FFF7E5FF20B9F7
:102840002046BDE87040FFF7CCBF08F0D5F8801BEC
:10285000A84206D807F0A6FFEEE7E07808F0CEF829
:10286000EEE79B23A3746FF0640070BD43788B4246
:1028700005D90431090301F47041FFF7CCBF0020F2
:10288000704770B504460E461546FFF72DFF082326
:10289000E3700023237140F23543A6702380656105
:1028A000204670BD10B504461046A27063702170BA
:1028B000012107F0CFFF94F90000012107F0CAFFC2
:1028C00094F90100002107F0C5FF94F902000121ED
:1028D00008F01EF8204610BD2DE9F8431B4E1C4F92
:1028E00004464FF000080725002194F90000DFF8A6
:1028F000649008F00DF80A227168D9F80030B3FB33
:10290000F7F353437268521A9342FBDC94F90100C7
:1029100008F038F828B10120A84048EA00005FFA22
:1029200080F8012194F9000007F0F2FF0A22716893
:10293000D9F80030B3FBF7F353437268521A93424D
:10294000FBDC013DD0D24046BDE8F883001000E03A
:1029500040420F007000002038B50021054690F974
:10296000020007F0D5FF1649164B174A1B68486846
:10297000B3FBF2F30A2253434A68121A9342FBDC78
:102980002846FFF7A9FF04022846FFF7A5FFA4B2D7
:102990000443A4B295F90200012107F0B9FF6307CF
:1029A0000BD4E008FDF7A6FD084B0022FDF70CFE56
:1029B000FEF702F900EE100A38BD9FED050AFBE7AD
:1029C000001000E07000002040420F000000D03FE7
:1029D0000000C07F7047000038B50E4B1A784FF4E6
:1029E0007A73B3FBF2F30C4A05461068B0FBF3F0C0
:1029F00000F0BAF8044658B90F2D09D80246294606
:102A00004FF0FF3000F05EF8044B20461D6038BDEB
:102A10000120FCE748000020700000204C0000204E
:102A200008B50B4B1A6842F400721A601A6842F437
:102A300080621A601A6842F480721A60032000F003
:102A40002FF80020FFF7C8FFFFF7C4FF002008BDE4
:102A5000003C0240034A044B11681B780B4413608E
:102A6000704700BF9807002048000020014B1868FD
:102A7000704700BF9807002038B50446FFF7F6FFFF
:102A8000631C1CBF054B1B78054618BFE418FFF7F5
:102A9000EDFF431BA342FAD338BD00BF480000201E
:102AA0000749CA6822F4E0620302120403F4E063F7
:102AB000120C134343F0BF6343F40033CB60704701
:102AC00000ED00E0164B30B5DC68C4F30224C4F11D
:102AD0000703251D042B28BF0423062D4FF0FF35C7
:102AE0008CBF033C002405FA03F321EA0303A5404D
:102AF00022EA0502A340002843EA0203ACBF00F12A
:102B00006040084A4FEA0313B8BF00F00F00DBB281
:102B1000AABF00F56140135480F8003330BD00BFF8
:102B200000ED00E014ED00E0002807DB044A410955
:102B3000012300F01F00834042F82130704700BF9E
:102B400000E100E000280CDB4309064900F01F000B
:102B500020330122824041F82320BFF34F8FBFF37F
:102B60006F8F704700E100E00138B0F1807F0BD239
:102B70004FF0E023054A5861F02182F8231000202D
:102B8000072298611A6170470120704700ED00E04C
:102B9000002808DB4309044900F01F0001226033CC
:102BA000824041F82320704700E100E0704708B5FB
:102BB000FFF7FCFF08BD704710B5044650B14379DC
:102BC00003F0FF0213B90271FFF7F5FF01236371F0
:102BD000002010BD0120FCE770B50446866DFFF7AC
:102BE00045FF94F83530022B054606D080236365F7
:102BF0000120002384F8343070BD23681A6822F065
:102C000016021A605A6922F080025A61226C0AB9CF
:102C1000A26C1AB11A6822F008021A601A6822F02F
:102C200001021A602368186810F0010007D1E26DF4
:102C30003F239340B360012384F83530D9E7FFF791
:102C400015FF401B0528EDD920230320636584F878
:102C50003500CEE790F83530022B03D08023436552
:102C6000012070470268052380F83530136823F08F
:102C7000010313600020704790F835007047000092
:102C80002DE9F74FDFF880915D4A00230D6801249C
:102C90009C4004EA0506AC4340F0A3804D6803273E
:102CA00005F003044FEA430807FA08FC671E012FEA
:102CB0006FEA0C0C34D8876807EA0C0ECF6807FA65
:102CC00008F747EA0E078760476827EA060EC5F34C
:102CD00000179F4047EA0E074760C76807EA0C0ED7
:102CE0008F6807FA08F747EA0E07022CC76019D168
:102CF0004FEAD30A00EB8A0A03F0070BDAF82070D8
:102D00004FEA8B0B4FF00F0E0EFA0BFE27EA0E0E5A
:102D10000F6907FA0BF747EA0E07CAF8207001E0BF
:102D2000032CDAD1076804FA08F407EA0C073C43DD
:102D300015F4403F046054D000240194D9F8444075
:102D400044F48044C9F84440D9F8444023F00307D0
:102D500007F1804704F4804407F59C37019403F0A1
:102D6000030C019CD7F808E04FEA8C0C0F2404FAFE
:102D70000CF42EEA040E234CA04239D004F58064F2
:102D8000A04237D004F58064A04235D004F58064B9
:102D9000A04233D004F58064A04214BF0724042469
:102DA00004FA0CF444EA0E04BC609468F74315F48A
:102DB000801F0CBF3C4034439460D46815F4001F5E
:102DC0000CBF3C403443D460546815F4003F0CBF42
:102DD0003C40344354601468ED0354BF3C403443DA
:102DE00014600133102B7FF451AF03B0BDE8F08FB6
:102DF0000024D5E70124D3E70224D1E70324CFE759
:102E0000003C01400000024000380240044A516981
:102E1000014208B502D0506104F088FC08BD00BF33
:102E2000003C01402DE9F84606460F4691461D46F6
:102E30004FEA114A3368BAF1010F0CBF5C699C6913
:102E400027EA0404A4B2B4FA84F46409A14501D0C9
:102E5000002025E06A1CEED0FFF708FE089BC01A90
:102E6000A84201D8002DE5D13368BAF1010F0CBF9B
:102E70005B699B6927EA03039BB2B3FA83F35B099F
:102E80009945D7D100232022336386F83D2086F868
:102E90003E30326C86F83C3042F020023264012031
:102EA000BDE8F8867047000070B5044608B90120F7
:102EB00070BD90F83D3003F0FF021BB980F83C2054
:102EC000FFF7F0FF242384F83D3023681A6822F0CE
:102ED00001021A601A6842F400421A601A6822F469
:102EE00000421A6002F0D6F83F4B65689D4294BFDD
:102EF0003E4B3F4B98428CBF00230123002BD6D181
:102F00002268394E51683B4BB0FBF3F321F03F018F
:102F10001943B542516088BF4FF49676116A88BF55
:102F2000734321F03F0184BF4FF47A76B3FBF6F38D
:102F300001330B431362D169431E2B4821F44F41E7
:102F4000854221F0FF0132D86D0040F6FC70B3FBE2
:102F5000F5F30133034242D0C3F30B031943D161AC
:102F6000D4E907301168034321F0C0010B4313601B
:102F70009168D4E9030321F40341034321F0FF01E5
:102F80000B439360D4E90530D168034321F0FF017E
:102F90000B43D360136843F0010313600020202328
:102FA000206484F83D30206384F83E0080E7A06808
:102FB00050B905EB4505B3FBF5F30133C3F30B0340
:102FC0007BB143F40043C9E719206843B3FBF0F336
:102FD0000133C3F30B0323B143F44043BEE704239F
:102FE000BCE70123BAE700BFA08601007F841E0072
:102FF000FF083D0040420F00704710B5044698B1ED
:103000000268242380F83D30136823F00103136025
:10301000FFF7F2FF0020206484F83C0084F83D00B4
:10302000206384F83E0010BD0120FCE72DE9F04F3D
:10303000044685B01F4688469246FFF717FD94F870
:103040003D30202B054603D0022005B0BDE8F08FAF
:1030500000904D49192301222046FFF7E3FE002886
:10306000F2D194F83C30012BEED0012384F83C30AF
:103070002368DFF814B11A68D0075EBF1A6842F0FF
:1030800001021A601A6822F400621A60242384F88C
:103090003D3000263D4B266408F0FE08E3622268BE
:1030A000136843F4807313604FF001113B460095A1
:1030B00000222046FFF7B6FE236838B11B68D90509
:1030C00044BF4FF4007323640320BEE7C3F81080AD
:1030D000FFF7CCFC23685A695B690546C2F34002DE
:1030E000C3F380234FF0A00994F83D10A0291CD110
:1030F00023684FF0200984F83D905A6992072BD538
:103100001A68214942F400721A60002203925A6937
:1031100003929B690393039B009519230122204688
:10312000FFF780FE98B101208FE71343E0D1FFF74E
:103130009DFC401BB84200D80FB984F83D9023682D
:103140005A695B69C2F34002C3F38023CCE784F879
:103150003D9084F83C0078E71A6842F400721A60E7
:103160006FF480625A615946009519230122204666
:10317000FFF758FE0028D6D1013656458FD384F884
:103180003D9084F83C00CEE7020010000000FFFFF5
:10319000F7B5002504460095019594F83D50089830
:1031A000202D02D0022003B0F0BD25682E68B605A0
:1031B00003D4082801D001281BD1284E46F2A817B5
:1031C0003668B6FBF7F619277E430196019E013E4D
:1031D0000196019E56B92023266384F83D3084F879
:1031E0003E60236C43F020032364DBE7AE69B7073E
:1031F000ECD494F83C60012ED4D02E68F6075EBF64
:103200002E6846F001062E602E6826F400662E60B9
:10321000212684F83D60102684F83E60002626644E
:103220006385638DE06261642385236B0093009B5B
:103230006262112B05D1B0F52A0F02D0B0F12A4FEE
:1032400003D12B6843F480732B60002084F83C008A
:103250006B6843F4E0636B60A5E700BF700000207B
:10326000F7B5002504460095019594F83D5008985F
:10327000202D02D0022003B0F0BD25682E68B605CF
:1032800003D4082801D001281BD1374E46F2A817D5
:103290003668B6FBF7F619277E430196019E013E7C
:1032A0000196019E56B92023266384F83D3084F8A8
:1032B0003E60236C43F020032364DBE7AE69B7076D
:1032C000ECD494F83C60012ED4D0012684F83C6004
:1032D0002E68F6075EBF2E6846F001062E602E6847
:1032E00026F400662E60222684F83D60102684F8BD
:1032F0003E60002626646385638DE06261642385F9
:10330000236B0093638D62629BB2022B24D1202831
:1033100001D0102820D1009B122B2B681DD123F443
:1033200080632B602B6843F400632B604FF4407282
:10333000009B122B05D1B0F52A0F02D0B0F12A4F15
:1033400003D12B6843F480732B60002084F83C0089
:103350006B6813436B608EE72B6843F480632B60CC
:103360004FF4E062E4E700BF7000002037B5044688
:1033700090F83D0000F02800282830D100292CD0FA
:10338000002A2AD094F83C00012828D02568286813
:10339000C0075EBF286840F001002860286820F45C
:1033A00000602860292084F83D00202084F83E0039
:1033B000002020646285628DE36201906B69019355
:1033C000AB69019384F83C00019B6B68616243F434
:1033D000E06322856B6003B030BD0120FBE7022073
:1033E000F9E737B5044690F83D0000F0280028289A
:1033F00030D100292CD0002A2AD094F83C00012892
:1034000028D025682868C0075EBF286840F0010002
:103410002860286820F4006028602A2084F83D0095
:10342000202084F83E00002020646285628DE362E3
:1034300001906B690193AB69019384F83C00019B97
:103440006B68616243F4E06322856B6003B030BD5A
:103450000120FBE70220F9E790F83D30202B14D142
:10346000282380F83D3003681A68D2075EBF1A68C7
:1034700042F001021A601A6842F480621A605A68C7
:1034800042F440725A600020704702207047704733
:103490007047704790F83D2008B5036DD2B283B9EC
:1034A000C36C0268012B836C05D1DBB21361036D21
:1034B0000233036508BDC3F307231361036D0133B2
:1034C000F7E7036D012B03D1836C0268DBB2F4E7ED
:1034D000036D022B2FD1222A05D10268136843F411
:1034E00080731360EAE7438D9BB263B1212A0AD14E
:1034F000436A026813F8011B11614362438D013B6B
:103500009BB24385D6E7438D9BB2002BD2D1212AB3
:10351000D0D10268516821F4E0615160116841F432
:10352000007111602022036380F83D2080F83E3056
:10353000FFF7AFFFBEE703685A69120644BF0022D7
:103540001A61B7E77047704737B5002301932D4BD9
:10355000806B1B6890F83D2046F2A811B3FBF1F395
:1035600023214B4301930368D2B2019941BB016C03
:1035700041F020010164446B0CB10021E163816BD7
:1035800009B10025CD631D6825F480651D60002507
:10359000458504B1256501B10D65196821F001016A
:1035A000196090F83D10602911D1202380F83D303A
:1035B000002380F83E300364FFF7C5FF03B030BD41
:1035C00001990139019119688905CED4D3E702F038
:1035D0002802282A0ED1196841F0010119601968E2
:1035E00041F4806119600023036380F83D20FFF7F8
:1035F00007F8E3E7202380F83D30002380F83E30D1
:10360000F5E700BF7000002010B590F83D2090F85D
:103610003E30102BD9B204460368D2B201D0402903
:1036200013D1222A11D1196821F400611960596857
:1036300011F4006106D1602A1EBF202284F83D20CB
:1036400084F83E100022226307E002F028012829B6
:10365000EDD10022226384F83D105A6812F4006212
:103660004FD05A68606B22F400625A6090F835308F
:10367000012B374B2BD00365FFF7ECFA50B12268D2
:10368000606B136823F001031360202384F83D303E
:10369000036D9847236C19071FBF2268536823F4F2
:1036A000E063536094F83D30226C5207DBB20DD5D5
:1036B000282B0BD1274BE3622022002323632046D3
:1036C00084F83D2084F83E30FEF76FFF10BDA06BFC
:1036D0000365FFF7BFFA0028DCD023685A6951065A
:1036E00005D51A69636A1A70636A013363622268D6
:1036F000A06B136823F001031360202384F83D308E
:10370000C6E794F83D10602915D1202184F83D10BA
:1037100022645A69520605D51A69636A1A70636A87
:10372000013363622268136823F0010313602046AB
:10373000FFF709FFAEE75A69500605D51A69636AB3
:103740001A70636A013363622046FEF759FFA1E7EE
:10375000493500080000FFFFF0B5036804465A68C9
:10376000C66A90F83E0094F83D1010288FB0C5B29C
:10377000C9B202D0402D40F0DD829F69586910F037
:10378000010F07D1B6F52A0F02D0B6F12A4F51D159
:103790000FB0F0BD96054DD5E26AB2F52A0F0CD1F7
:1037A0000122E26294F83E20402A11D1226D52B9E2
:1037B000626C02F0FE021A61EAE7E26AB2F12A4F95
:1037C000F0D10822EDE7626C42F00102D2B2F2E7DA
:1037D0002269B2F5804F1AD194F83D20212A626CFB
:1037E00011D102F0FE021A61626B0AB1D26B2AB9E2
:1037F000A26B002ACCD0D26B002AC9D05A6842F4FE
:1038000000625A60C4E742F00102D2B2EBE7226DD7
:1038100032B9626CD21102F0060242F0F002CAE73D
:10382000226D012AB4D1626CD21102F0060242F07C
:10383000F102C0E7060703D5960501D5626CE4E7FF
:10384000860740F1E880960540F1E58094F83E1047
:10385000E26A256B94F83D002228C9B240F0D3807B
:10386000206D40B9402906D101905A6901929B69A7
:103870000193019B8CE7216D89B92069B0F5404F18
:103880000DD102915A6902929A690292029A1A68BB
:1038900042F480721A60236D0133236578E7618DED
:1038A00089B251B903915A6903929A690392039AB2
:1038B0001A6842F400721A6019E0618D89B2012918
:1038C00049D112F5803F1BD11A6822F480621A6038
:1038D0005A6812F400620CD01A6822F480621A60EE
:1038E000002204925A6904929B690493049B00236A
:1038F000D3E705925A6905929A690592059AD7E726
:10390000082A1CD0202A1AD0122D0DD1012A16D136
:103910001A6822F480621A60002206925A6906929E
:103920009B690693069BE2E7102AF1D8824941FA87
:1039300002F2D707ECD41A6842F48062EBE71A6807
:1039400022F480621A60002207925A6907929A69EB
:103950000792079AACE7618D89B2022930D1102A0B
:1039600003D87649D140CE0715D4196821F4806177
:103970001960196841F40061196059680D0514D582
:10398000202A1AD8072A0AD8012A0ED15A6842F4E6
:1039900080525A6009E0196841F48061ECE7A2F1B5
:1039A0000801674ACA40D007F0D4002208925A6939
:1039B00008929B690893089B99E712F5803FE4E71A
:1039C000196841F4806119605968090510D5202AE9
:1039D00016D8072A06D8012A0AD15A6842F480521A
:1039E0005A6005E0A2F10801554ACA40D207F4D452
:1039F000002209925A6909929B690993099B76E70B
:103A000012F5803FE8E700220A925A690A929B6900
:103A10000A930A9BBCE67F0740F194805E683605F6
:103A20003FF5B6AE070600F004063ED550053CD57E
:103A3000002E3DD194F83D20258D94F83E10E06A8B
:103A4000D2B2C9B2C5B9212A18D1082858D0202825
:103A500056D010F5803F53D05A6822F4E0625A6085
:103A600011232363002384F83E30202384F83D3063
:103A70002046FFF70CFD8BE6212A05D040297FF474
:103A800087AE222A7FF484AE628D92B21AB95A6848
:103A900022F48062B5E694F83E20402A16D12046F2
:103AA0000FB0BDE8F040FFF7F5BC002E3FF470AE5C
:103AB00097057FF56DAE212939D1E16A94F83D2053
:103AC000212A7FF465AE628D92B24AB1626A12F821
:103AD000011B19616262638D013B9BB2638557E6EE
:103AE00008290DD020290BD011F5803F08D0596846
:103AF00021F4E06159601123236384F83E20B4E788
:103B00005A6822F4E0625A601A6842F400721A603D
:103B100000232022236384F83D2094F83E2084F87B
:103B20003E30402A2046A4D1FFF7B3FC30E6402DBA
:103B30007FF42EAEB3E700BFEBFFFEFF14000100E1
:103B40000101000159680E053FF522AE450600F05F
:103B5000040140F18680500540F18380002940F047
:103B6000838094F83D20222A7FF412AEE06A628DB1
:103B700092B2032A14D91A69636A1A70636A01330C
:103B80006362638D013B9BB26385638D9BB2032BA4
:103B90007FF4FEAD2268536823F480635360F7E539
:103BA000E56A022D3FF473AF012A3FF670AF7A4AFF
:103BB0000B91126846F2A811B2FBF1F202EB8202FD
:103BC0000B920B9A013A0B920B99D1B9226C42F0ED
:103BD000200222645A6822F4E0625A601A69636A19
:103BE0001A70636A01336362638D013B9BB2638524
:103BF000202384F83D30204684F83E10FEF700FD77
:103C0000C6E51A6812F40072DBD1196821F48061EC
:103C10001960596821F4E06159601969636A197083
:103C2000636A01336362638D013B9BB2638520232A
:103C300084F83D3094F83E3084F83E20402B04D187
:103C400022632046FFF77EFCA2E5082801D0202849
:103C500001D1002300E0122323632046FFF718FC64
:103C600096E500293FF494AD92057FF591ADE26AA7
:103C7000608D616A80B2042809D15A6822F480629A
:103C80005A601B690B70636A0133636223E7608DBE
:103C900080B203280CD15868042A20F48060586050
:103CA000EFD0022AEDD01A6822F480621A60E8E7A9
:103CB000608D80B20228E4D1042A33D007D8012ACB
:103CC00007D0022A2ED0186840F4007004E0102AB1
:103CD000F9D1186820F4806018601B690B70616A64
:103CE0004B1C6362638D013B9BB2638523681B6938
:103CF0004B70636A216801336362638D013B9BB241
:103D000063854B6823F440734B60202384F83D3077
:103D100094F83E30402B4FF0000384F83E3005D13C
:103D200023638EE7186840F48060D5E7082A90D0B6
:103D3000202A8DE7206C10B35869002587072DD500
:103D400096052BD5226C02B19D6994F83D2002F0B6
:103D50002802282A16D15A6822F480625A602F0657
:103D600085F004014FF0000354BFA289228B84F830
:103D70003C30C1F380012046FEF7E3FB08E59D6976
:103D80005869DBE700220C9259690C919B690C93EE
:103D90000C9B84F83C20FBE470000020C60640F138
:103DA000B180950540F1AE8094F83D505A6822F4F8
:103DB000E0625A6000220D925A690D921A6842F030
:103DC00001021A600D9A1A6822F480621A605A6819
:103DD0001005EDB220D505F0F702222A4AD1A06BDA
:103DE0000268526892B26285628D92B21AB1226CF8
:103DF00042F0040222645A6822F400625A60FEF71C
:103E00003BFF012808D0A06B794B0365FEF722FF2A
:103E100010B1A06B036D9847638D9BB213B32368F9
:103E20005A69510709D51A69636A1A70636A0133BE
:103E30006362638D013B9BB2638523685A695206B6
:103E400009D51A69636A1A70636A01336362638D04
:103E5000013B9BB26385638D9BB21BB1236C43F026
:103E600004032364236C13B320460FB0BDE8F04075
:103E7000FFF7CABB606B0268526892B26285628DBE
:103E800092B21AB1226C42F0040222645A6822F4FF
:103E900000625A60FEF7F0FE0128BDD0606B544B03
:103EA0000365FEF7D7FE0028B6D0606BB2E72A2D77
:103EB00006D12363282384F83D302046FEF78AFB91
:103EC00094F83D30282B0CD14A4BE362202200238A
:103ED0002363204684F83D2084F83E30FEF765FBDE
:103EE00056E4236B222B02D0222D7FF451AC002309
:103EF0002022236384F83D2084F83E302046FEF7DC
:103F000069FB45E401F0F701212900F0040535D1F2
:103F1000070627D5560525D53DBB94F83D00628D93
:103F200092B2C0B2002A3FF433AC626A12F8015B6D
:103F30001D616262628D013A92B26285628D92B2B7
:103F4000002A7FF425AC29287FF422AC5A6822F499
:103F500080625A6028232163204684F83D30FEF7B2
:103F60004BFB15E4002D3FF413AC95057FF510AC29
:103F7000628D92B2002A3FF40BACA7E5400627D52C
:103F8000510525D53DBB94F83D20618D89B2D2B253
:103F900000293FF4FDAB1969636A1970636A013344
:103FA0006362638D013B9BB26385638D9BB2002B83
:103FB0007FF4EEAB2A2A7FF4EBAB2268536823F43C
:103FC0008063536022232363282384F83D3095E7E0
:103FD000002D3FF4DDAB92057FF5DAAB628D92B236
:103FE000002A3FF4D5AB1A69636A1A704BE600BF2A
:103FF000493500080000FFFFF8B503685F695E6897
:1040000090F83E2017F480750446D2B206D016F41C
:1040100080751EBF6FF4807159610125B80506D502
:10402000F10542BF6FF4007145F002055961780552
:1040300036D5F10534D5608D94F83D10D4F830C0F4
:10404000202A80B2C9B25FD100285DD101F0F7000B
:10405000212804D0282957D1BCF1210F54D194F83C
:104060003D20E16A0829D2B201D020292AD1282A8C
:1040700028D12E4AE2625A6822F4E0625A606FF454
:1040800080625A611A6822F480621A60002320223A
:104090002363204684F83D2084F83E30FEF785FAFD
:1040A0003A053FD5F3053DD523686FF4006245F02E
:1040B00008055A61236C2B4323642046BDE8F84071
:1040C000FFF7A2BA212A1BD11849E162226300211D
:1040D000202284F83D2084F83E105A6822F4E062E1
:1040E0005A606FF480625A611A6822F480621A6022
:1040F0005A69100648BF19612046FEF77DFACFE7DE
:104100006FF480625A61CBE76FF48061102A5961C5
:1041100045F0040501D0402AC2D11A6842F4007269
:104120001A60BDE7002DC5D1F8BD00BF0000FFFF3C
:1041300090F83D007047006C7047F7B5044610B327
:1041400090F89534056803F0FF021BB980F89424B9
:1041500005F0E8FB0323B5F1A04F84F8953404BFC4
:104160000023A371206802F0A3FD237C8DF80030AA
:10417000251D95E80E00206802F0DFFC014630B1F5
:10418000022384F895340125284603B0F0BD206849
:1041900002F094FD0028F3D1267904F114030127DD
:1041A0000246C1B28E4203F124031BD8002104F55C
:1041B00015730A46C8B2864203F1240320D8237C33
:1041C0008DF8003095E80E00206802F0F3FD0546FA
:1041D0000028D5D101236074206884F8953403F059
:1041E0002DF9D1E723F80A0C43E9072203F8237CD1
:1041F00003F8241C03F8202C43F8142C0130D0E7DA
:1042000043E9072203F8232C03F8240C03F8202C9D
:1042100043F8142C0131CDE710B50446006894F83A
:104220009434012B15D0012384F89434C3685B06C1
:1042300006D5637B012B02BF836B43F4803383631A
:1042400002F030FD206803F0EBF8002084F89404BD
:1042500010BD0220FCE710B590F89424012A044612
:104260000AD0012280F894244174006803F0C8F851
:10427000002084F8940410BD0220FCE770B501F022
:104280000F0606EBC60411F0800F05464FEA8404C2
:104290004FF0240020D000FB065004F1140101244B
:1042A00029444475C2F30A028A604A780E700B7181
:1042B00002B14E83022B04BF00234B7195F8943456
:1042C000012B12D00123286885F8943402F037FEC0
:1042D000002085F8940470BD00FB065004F51571AC
:1042E0000024294480F85542DCE70220F3E710B5AA
:1042F000044601F00F0000EBC00311F0800F4FEAFD
:1043000083034FF0240215D002FB004203F1140195
:10431000012321445375087094F89434012B12D072
:104320000123206884F8943402F048FE002084F8C9
:10433000940410BD02FB004203F5157100232144D3
:1043400082F85532E7E70220F3E770B501F00F0578
:10435000242404FB050104FB0504C4E9982300237D
:10436000C4F8683284F8553284F85452164682797B
:104370000068012A01F5157108BFC4F8706202F0E7
:10438000C9FE002070BD01F00F01242303FB0100D2
:10439000D0F86802704770B501F00F05242404FBC3
:1043A000050104FB0504C4E908230023A3620123DB
:1043B000637525751646827900689A4201F11401E9
:1043C00008BF266302F0A6FE002070BD38B5037951
:1043D00001F00F05AB4204462BD311F0800F4FF0D4
:1043E00024001DD000FB054100FB054001231431D2
:1043F000437501238B700D7094F894249A421AD05F
:10440000206884F8943402F0A7FF2DB9A1792068C0
:1044100004F29C4203F060F8002084F8940438BD54
:1044200000FB01431A4603F51571002382F855324B
:10443000DFE70120F3E70220F1E738B5037901F067
:104440000F029342044629D302EBC20311F0800FFE
:104450004FEA83034FF0240017D000FB024003F122
:10446000140101232144437500258D700A7094F8CE
:104470009434012B14D00123206884F8943402F082
:1044800096FF84F89454284638BD00FB024003F59B
:1044900015710023214480F85532E5E70120F3E748
:1044A0000220F1E701F00F0303EBC3030A064FEA12
:1044B00083034CBF03F1140103F515710144006837
:1044C00002F0D2BD2DE9F04F066889B004463046AF
:1044D00002F0F0FF0390002840F05881206802F0BD
:1044E000BBFF002800F05281D6F808382068C3F3DB
:1044F0000D23C4F8D43402F0AFFF870748BF226809
:10450000206842BF536903F00203536102F0A4FF25
:10451000C00606F500652DD52268936923F01003C7
:104520009361D6F8208008F4F013B3F5802F08F0DB
:104530000F0740F02E8147F6F07318EA030F14D0EE
:10454000242303FB0747C8F30A19D7F860124A4629
:10455000304602F0E1FED7F860324B44C7F86032D3
:10456000D7F868324B44C7F868322268936943F041
:1045700010039361206802F06FFF010300F11C81BA
:10458000206802F069FF42030DD5206802F070FF39
:104590002746049006F5106B4FF0000A049B206834
:1045A000002B40F0D381206802F056FF002813DA78
:1045B0006B6823F001036B6094F8CC34012B40F05E
:1045C0006B82002184F8CC14204600F0E6FA2268C1
:1045D000536903F000435361206802F03DFF010579
:1045E0000AD5AB68DA0702D5204605F00FFA226833
:1045F000536903F400635361206802F02DFFC30484
:1046000033D56B68206823F001036B60102102F042
:1046100085FB207906F510634FF67F31039A9042AF
:1046200000F23E82EB6943F00113EB61E37B002B68
:1046300000F05282D5F8843043F00B03C5F8843083
:104640006B6C43F00B036B64D6F80038206823F4DE
:10465000FE63C6F8003804F29C42A17902F03CFFE8
:104660002268536903F480535361206802F0F4FE1A
:10467000870416D5206802F021FF206802F054FC60
:10468000E071276800F000FDE2790146384602F04B
:1046900099FA204605F0ADF92268536903F40053F6
:1046A0005361206802F0D8FE000707D5204605F0C8
:1046B0009CF92268536903F008035361206802F0F3
:1046C000CBFE010600F11382206802F0C5FEC20293
:1046D0000CD5A04606F5126901272379BB4200F2EA
:1046E0001F822268536903F480135361206802F02B
:1046F000B3FE83022DD594F804E0234606F532601C
:1047000001218E4520D993F87CC20268BCF1010FCB
:1047100040F01C82002A80F21982D4F8D47402F48A
:10472000803207F00107BA4240F0108283F87BC262
:10473000B26942F08002B2617269170600F1068226
:104740006B6843F400736B602268536903F40013D1
:104750005361206802F080FE410007D5204605F035
:104760008FF92268536903F080435361206802F097
:1047700073FE42070AD523685D686B0702D52046A1
:1047800005F082F9226853682B43536009B0BDE8F5
:10479000F08FB3F5402F7FF4E8AE082204F29C417D
:1047A000304602F0B9FD242303FB0747C8F30A187B
:1047B000D7F868324344D6E6206802F051FE06F589
:1047C00030680490A2460027049B2068002B3FF429
:1047D000D7AE049BDB0778D55FFA87FB594602F01A
:1047E0004FFE10F0010F81461FD020680123C8F84A
:1047F000083094F806C0016C00F5306303EB4713F2
:10480000BCF1010F9A6840F08B8012F0080F07D0BE
:10481000AF48814209D9120407D54FF4004203E0A2
:1048200012F0200F5AD020229A6019F0080F21D0E0
:104830000823C8F808302368A5491A6C03F53063CB
:1048400003EB47138A42986804D9010444BF4FF42C
:10485000004098602046059205F0B0F8059A9C4902
:104860008A4207D9A179012904D1206804F29C4227
:1048700002F032FE19F0100F1CBF1023C8F80830E8
:1048800019F0020F14D073691A0642BF6B6843F423
:1048900080636B609AF85732012B06D100238AF8A7
:1048A00057325946204605F0E3F80223C8F808308D
:1048B00019F0200F1CBF2023C8F8083019F4005F3E
:1048C0001CBF4FF40053C8F80830049B5B08013745
:1048D000049308F120080AF1240A75E7DFF8F0C113
:1048E000614501D9120498D41A69DAF87432C2F316
:1048F00012029B1ACAF868326FB9D4F864222AB936
:1049000004F29C42012102F0E7FD04E0D4F86022A9
:104910001A44C4F860225946204605F055F884E749
:10492000DFF8B0C1614507D111043FF576AF9006BD
:10493000F1D520229A60EEE7002FECD1D4F8643252
:10494000002BE8D104F29C423946DCE7049BDB07EC
:1049500040F199805FFA8AF31946059302F099FDB8
:1049600010F0010F80461FD06B6B01210AF00F027F
:1049700001FA02F223EA02036B63CBF80810A17973
:1049800001290DD1D7E9072313443B62BAF1000F87
:1049900006D1636A23B9206804F29C4202F09CFDB0
:1049A0000599204605F019F818F0080F1CBF0823D8
:1049B000CBF8083018F0100F1CBF1023CBF80830CC
:1049C00018F0400F1CBF4023CBF8083018F0020F3E
:1049D0000FD05146304602F0A1F9FB7D012B05D1E5
:1049E00000230599FB75204605F046F80223CBF815
:1049F00008302368069318F0800F44D0D7E90932B5
:104A00009A4240D8A3EB0208FB69984528BF984614
:104A1000069B03F5106308F1030803EB4A134FEA02
:104A200098080793079B996989B24145D7E90932EC
:104A300027D393420BD8069B0AF00F00D3F83428F3
:104A40000121814022EA0102C3F834281BE0A3EBD4
:104A50000209FB69059A0698994528BF9946A379EA
:104A60000093396A1FFA89F302F040FB3B6A4B441A
:104A70003B62BB6A09F103084B444FEA9808BB62EA
:104A8000D0E79342D7D9049B5B080AF1010A04934B
:104A900024370BF1200B81E5204604F0CFFF96E58B
:104AA00099601A6822F400121A60C3F80812D3F849
:104AB000002222F40012C3F80022D3F8002242F0B0
:104AC0000062C3F80022039A013203922033A5E565
:104AD0000A30544F0A31544F6B6943F4005343F08A
:104AE0002B036B612B6943F00B032B61ACE5B369BE
:104AF00023F08003B361012704F257284FF0240903
:104B00002379BB427FF6E0AD09FB07F318F80330C9
:104B1000012B03D1F9B22046FFF7C4FC0137EFE7C0
:104B200098F83C30D9F80020012B09D1002A07DA87
:104B300067F07F0188F83B30C9B22046FFF7B2FC2E
:104B4000013708F1240809F12009C6E501312433B1
:104B50002030D6E5006870B5436A120419B91343D2
:104B60008362002070BD846A4E1E03EB1443002450
:104B7000B44205D33F3100EB810013434360F0E7BB
:104B800004F1400500EB850501346D6803EB154326
:104B9000EEE7036800205962704770472DE9F34142
:104BA000044640B30368DE0710D423689D075BD436
:104BB0002368190700F19D8023685A0700F1BD8022
:104BC000A369002B40F0248100202CE08D4B9A68D3
:104BD00002F00C02042A07D09A6802F00C02082A9C
:104BE0000BD15B68590208D5864B1B689A03DCD54C
:104BF0006368002BD9D1012015E06368814DB3F5BE
:104C0000803F13D12B6843F480332B60FDF72EFFD8
:104C10007C4E054633689B03C7D4FDF727FF401B36
:104C20006428F7D9032002B0BDE8F081B3F5A02FC6
:104C300004D12B6843F480232B60E3E72A6822F435
:104C400080322A602A6822F480222A60002BDDD17B
:104C5000FDF70CFF06462B689F03A6D5FDF706FF60
:104C6000801B6428F7D9DDE7664B9A6812F00C0FB9
:104C700007D09A6802F00C02082A11D15B685D0225
:104C80000ED4604A1368990702D5E368012BB2D1AC
:104C90001368216923F0F80343EAC103136087E72F
:104CA000E268594BB2B101221A60FDF7DFFE554DA3
:104CB00006462B689B0707D52B68226923F0F8036B
:104CC00043EAC2032B6073E7FDF7D0FE801B022886
:104CD000EFD9A7E71A60FDF7C9FE4A4E05463368CB
:104CE0009F077FF565AFFDF7C1FE401B0228F6D98F
:104CF00098E76269444B82B10122C3F8802EFDF728
:104D0000B5FE404E0546736F9B073FF555AFFDF767
:104D1000ADFE401B0228F6D984E7C3F8802EFDF7CC
:104D2000A5FE384E0546736F9F077FF545AFFDF72B
:104D30009DFE401B0228F6D974E7324B1A6C12F024
:104D4000805228D101921A6C42F080521A641B6C76
:104D500003F080530193019B01272C4D2B68D8054C
:104D60001BD5A368274D012B27D12B6F43F00103DF
:104D70002B67FDF77BFE234E054641F28838336FE3
:104D80009A0739D5002F3FF41BAF1E4A136C23F04E
:104D90008053136414E70027DFE72B6843F4807324
:104DA0002B60FDF763FE06462B68D905D9D4FDF7C5
:104DB0005DFE801B0228F7D934E7052B04D12B6F49
:104DC00043F004032B67D0E72A6F22F001022A6721
:104DD0002A6F22F004022A67002BCAD1FDF746FE93
:104DE00041F2883806462B6F9B07CBD5FDF73EFE78
:104DF000801B4045F7D915E7FDF738FE401B4045BD
:104E0000BDD90FE700380240000047420070004063
:104E1000374DAA6802F00C02082A3ED0022B354B0F
:104E20004FF000021A662BD1FDF720FE06462B68D4
:104E300099011FD4D4E907321343626A43EA82130B
:104E4000E26A43EA0263A26A5208013A43EA024371
:104E50006B60284B264D01221A66FDF707FE0446BB
:104E60002B689A013FF5B0AEFDF700FE001B02284B
:104E7000F6D9D7E6FDF7FAFD801B0228D7D9D1E68F
:104E8000FDF7F4FD04462B689B017FF59DAEFDF711
:104E9000EDFD001B0228F6D9C4E6012B3FF4ABAEB2
:104EA0006B68E26903F4800191427FF4A4AE216A49
:104EB00003F03F028A427FF49EAE616A47F6C072F9
:104EC0001A40B2EB811F7FF496AEA26A520803F437
:104ED0004031013AB1EB024F7FF48DAEE26A03F04C
:104EE0007063B3EB026F14BF012000209BE600BF8C
:104EF0000038024000004742134908B58B6803F0B0
:104F00000C03042B1CD0082B1CD14A684B68496841
:104F100013F4800314BF0D480D48C1F3881118BF66
:104F2000002302F03F02A1FB0001FBF795FE064BB8
:104F30005B68C3F3014301335B00B0FBF3F008BDD2
:104F40000248FCE70248FAE70038024000127A0003
:104F50000024F4002DE9F0410D46044610B901206B
:104F6000BDE8F081434B1A6802F007028A4228D359
:104F700021688F072DD4C80740D43E4B1A6802F031
:104F80000702AA4265D8226851076BD4130707D5D8
:104F9000394A2169936823F4604343EAC10393606B
:104FA000FFF7AAFF344B354A9B68C3F30313D35C66
:104FB000D840334B1860334B1868FDF70DFD0020C7
:104FC000CEE7CAB21A701B6803F007038B42C6D142
:104FD000CEE7294B11F0040F1EBF9A6842F4E0524D
:104FE0009A600E0742BF9A6842F460429A609A68DB
:104FF000A06822F0F00202439A60BCE762681E4B90
:10500000012A1CD11B6813F4003FA8D01A4EB368C4
:1050100023F003031343B360FDF728FD41F2883802
:105020000746B368626803F00C03B3EB820FA4D0A9
:10503000FDF71CFDC01B4045F3D9032090E7911EEE
:1050400001291B6802D813F0007FDEE713F0020F7E
:10505000DBE7EAB21A701B6803F00703AB427FF488
:105060007EAF90E70449E0688B6823F4E053034384
:105070008B608BE7003C02400038024098FA000841
:10508000700000204C000020014B1868704700BFE2
:1050900070000020044B054A9B68C3F38223D35C55
:1050A000034A1068D84070470038024090FA000860
:1050B00070000020044B054A9B68C3F34233D35C65
:1050C000034A1068D84070470038024090FA000840
:1050D000700000200F2303600B4B9A6802F003025C
:1050E00042609A6802F0F00282609A6802F4E0522C
:1050F000C2609B68DB0803F4E0530361034B1B6849
:1051000003F007030B60704700380240003C024088
:10511000032303600E4BD3F88420C2F3881282600D
:10512000D3F88420C2F30272C260D3F8842002F064
:105130003F02426099681A6F01F4F81102F440725C
:105140000A430261D3F88C30C3F3006303757047E0
:1051500000380240036A026A22F00102026270B55E
:10516000446882690D6822F073022A438D6823F037
:1051700002032B430A4DA8420BD1CD6823F008034C
:105180002B43D1E9055624F44074354323F004033E
:105190002C43446082614A684263036270BD00BF71
:1051A00000000140036A026A22F48072026270B554
:1051B0004468C2690D6822F073022A438D6823F4A3
:1051C000007343EA05230B4DA8420DD1CD6823F4AB
:1051D000006343EA0523D1E9055624F440543543DE
:1051E00023F4806344EA05144460C2614A68C263E0
:1051F000036270BD00000140036A026A22F480521B
:10520000026230B54468C2690D6822F4E64242EA9F
:1052100005228D6823F4005343EA0533064DA84266
:1052200002BF4D6924F4804444EA85144460C2619D
:105230004A680264036230BD0000014090F83D30CE
:10524000012B24D10223134A80F83D300368934296
:1052500012D0B3F1804F0FD0A2F57C4293420BD015
:1052600002F58062934207D002F58062934203D038
:1052700002F59A32934204D19A6802F00702062A94
:1052800003D01A6842F001021A6000207047012022
:10529000704700BF0000014090F83C20012A0346FF
:1052A0004FF0020009D01A6883F83D0051610020D8
:1052B000012283F83D2083F83C0070477047704717
:1052C000036870B5DD681E69B10704460DD5AA07ED
:1052D0000BD56FF002021A61012202779B699B07CE
:1052E00069D001F005FC00232377710710D56A0708
:1052F0000ED523686FF004021A61022222779B699F
:1053000013F4407F20465CD001F0F2FB00232377AA
:1053100033070FD528070DD523686FF008021A61EF
:1053200004222277DB699907204650D001F0E0FB88
:1053300000232377F20610D5EB060ED523686FF015
:1053400010021A6108222277DB6913F4407F20469D
:1053500043D001F0CDFB00232377F00708D5E90700
:1053600006D523686FF001021A61204601F09DFB0B
:10537000320608D52B0606D523686FF080021A6125
:10538000204600F036FB700608D5690606D523686E
:105390006FF040021A612046FFF791FFB20622D556
:1053A000AB0620D523686FF0200220461A61BDE8C5
:1053B000704000F01DBB01F099FB2046FFF77EFF17
:1053C00091E701F093FB2046FFF778FF9EE701F09D
:1053D0008DFB2046FFF772FFAAE701F087FB20460E
:1053E000FFF76CFFB7E770BD1F4A036890420ED00D
:1053F000B0F1804F0BD0A2F57C42904207D002F56D
:105400008062904203D002F58062904208D14A68DF
:1054100023F070031343CA6823F4407313430AE074
:10542000124A9042F7D002F580629042F3D002F522
:1054300080629042EFD04A6923F0800313430360F7
:105440008B68C3620B688362074B984204BF0B6989
:105450000363012343610369DB0742BF036923F050
:1054600001030361704700BF00000140004001409C
:1054700010B5044630B390F83D3003F0FF021BB97D
:1054800080F83C2002F0E0FC0223206884F83D30E4
:10549000211DFFF7A9FF012384F84630002084F87E
:1054A0003E3084F83F3084F8403084F8413084F84E
:1054B000423084F8433084F8443084F8453084F82E
:1054C0003D3010BD0120FCE7036A026A22F01002A1
:1054D000026270B5446882690D6822F4E64242EACD
:1054E00005228D6823F0200343EA05130B4DA842E3
:1054F0000DD1CD6823F0800343EA0513D1E90556A9
:1055000024F44064354323F0400344EA85044460B6
:1055100082614A688263036270BD00BF000001407F
:1055200010B590F83C30012B04461DD0082A17D046
:1055300007D862B1042A0FD00120002384F83C3040
:1055400010BD0C2AF8D10068FFF756FE02E0006893
:10555000FFF700FE0020F0E70068FFF7B5FFF9E76E
:105560000068FFF71FFEF5E70220E9E738B590F87D
:105570003C30012B04464FD00120082A84F83C001F
:105580003AD006D8BAB1042A26D0002384F83C3099
:1055900038BD0C2AF9D12068FFF72EFEC3690A69CD
:1055A00043F40063C361C36923F48063C361C369C7
:1055B00043EA02232EE02068FFF7CCFD83690A69E5
:1055C00043F008038361836923F0040383618369E3
:1055D000134383610020D8E72068FFF775FF8369D4
:1055E0000A6943F400638361836923F48063836100
:1055F000836943EA0223ECE72068FFF7D3FDC36920
:105600000A6943F00803C361C36923F00403C3615B
:10561000C3691343C361DDE70220B9E770B5056ACA
:10562000046A154E24F001040462B04284691ED05D
:10563000B0F1804F1BD0A6F57C46B04217D006F5DE
:105640008066B04213D006F58066B0420FD006F5F2
:105650009A36B0420BD044F0010263F3071201F016
:105660000A0125F00A0319438261016270BD24F02A
:1056700003042243F1E700BF00000140F8B590F8B1
:105680003C30012B05460C4600F082800120082AA0
:1056900085F83C005CD006D842B3042A36D00023FB
:1056A00085F83C30F8BD0C2AF9D12B68CE68186A11
:1056B000D1E90027196A21F480511962D9691203CE
:1056C00021F4407141EA072120F4204002F42042F5
:1056D00066F30F310243D9611A62DA69A16822F4D4
:1056E0004062DA61DA6942EA01224FE02868CB6859
:1056F000D1E90012FFF792FF8369A26823F00C033F
:1057000083618369134383610020C8E72B68CE68F7
:10571000186AD1E90027196A21F010011962996904
:10572000120121F4407141EA072120F0A00002F0AB
:10573000A00266F30F31024399611A629A69A16867
:1057400022F440629A619A6942EA01229A61DBE797
:105750002B68E768186A1E6A26F48076D1E9002172
:105760001E62DE69120226F00306314320F4206037
:1057700002F4206267F307110243D9611A62DA6901
:10578000A16822F00C02DA61DA690A43DA61BBE748
:10579000022087E7036A01F01F0110B501248C4045
:1057A00023EA04030362036A8A401A43026210BDBB
:1057B00008B529B990F83E30012B1DD001202EE00C
:1057C000042907D190F83F30012BF7D1022380F84C
:1057D0003F3014E0082907D190F84030012BEDD17B
:1057E000022380F840300AE090F84130012BE5D1E7
:1057F000022380F8413002E0022380F83E30006846
:105800000122FFF7C7FF134B984209D0B0F1804F38
:105810000BD1836803F00703062B15D1002008BDC8
:10582000436C43F400434364F3E70B4B9842F0D0DE
:1058300003F580639842ECD003F580639842E8D08A
:1058400003F59A339842E4D0036843F00103036000
:10585000E4E700BF0000014000040040FFF7A8BFDC
:1058600008B5034689BB90F83E0093F84220C0B2C9
:105870000128D2B256D1012A26D1022200293AD1DA
:1058800083F83E2083F8422018680122FFF782FF48
:10589000254B984212D0B0F1804F0FD0A3F57C4336
:1058A00098420BD003F58063984207D003F58063DC
:1058B000984203D003F59A3398422ED1836803F0BF
:1058C0000703062B29D1002008BD042905D190F833
:1058D0003F0093F84320C0B2CAE708290BBF90F8F5
:1058E000400093F8410093F8442093F845200CBF02
:1058F000C0B2C0B2BCE7042904D183F83F2083F8CA
:105900004320C1E708290BBF83F8402083F84120DA
:1059100083F8442083F84520B6E7036843F0010389
:105920000360D0E70120CFE700000140036A01F0E7
:105930000F0110B504248C4023EA04030362036AB8
:105940008A401A43026210BD08B529B990F8423066
:10595000012B1DD0012046E0042907D190F84330E7
:10596000012BF7D1022380F8433014E0082907D136
:1059700090F84430012BEDD1022380F844300AE046
:1059800090F84530012BE5D1022380F8453002E044
:10599000022380F8423000680422FFF7C7FF436CFF
:1059A00043F400434364104B984212D0B0F1804F4F
:1059B0000FD0A3F57C4398420BD003F58063984247
:1059C00007D003F58063984203D003F59A339842D9
:1059D00004D1836803F00703062B03D0036843F068
:1059E00001030360002008BD00000140FFF7ACBFC9
:1059F00070477047026802F10C0353E8003F23F43C
:105A000090730C3242E8003102680029F2D102F1B1
:105A1000140353E8003F23F0010302F1140C4CE897
:105A200000310029F3D1036B012B0BD102F10C03E0
:105A300053E8003F23F0100302F10C0C4CE8003156
:105A40000029F3D1202380F84230002303637047FC
:105A50000268C16838B5136923F440530B431361DE
:105A6000054683680069D168034368690343E869B0
:105A700021F4164121F00C0103430B43D360536919
:105A8000A96923F440730B4353611F4B9A4203D01F
:105A900003F580639A4224D1FFF70CFBEA691921D0
:105AA000B2F5004FD5E90043A0FB01011CD1DA1883
:105AB0004FF0000545EB0503FBF7CEF86422B0FB81
:105AC000F2F102FB1103DB003233B3FBF2F303F01C
:105AD00007025B0002EB011203F4F8731344A360A6
